{
  "_format": "hh-sol-artifact-1",
  "contractName": "OfferLetterVerifier",
  "sourceName": "contracts/OfferLetterVerifier.sol",
  "abi": [
    {
      "inputs": [
        {
          "internalType": "address",
          "name": "target",
          "type": "address"
        }
      ],
      "name": "AddressEmptyCode",
      "type": "error"
    },
    {
      "inputs": [
        {
          "internalType": "address",
          "name": "implementation",
          "type": "address"
        }
      ],
      "name": "ERC1967InvalidImplementation",
      "type": "error"
    },
    {
      "inputs": [],
      "name": "ERC1967NonPayable",
      "type": "error"
    },
    {
      "inputs": [],
      "name": "FailedCall",
      "type": "error"
    },
    {
      "inputs": [],
      "name": "InvalidInitialization",
      "type": "error"
    },
    {
      "inputs": [],
      "name": "NotInitializing",
      "type": "error"
    },
    {
      "inputs": [
        {
          "internalType": "address",
          "name": "owner",
          "type": "address"
        }
      ],
      "name": "OwnableInvalidOwner",
      "type": "error"
    },
    {
      "inputs": [
        {
          "internalType": "address",
          "name": "account",
          "type": "address"
        }
      ],
      "name": "OwnableUnauthorizedAccount",
      "type": "error"
    },
    {
      "inputs": [],
      "name": "UUPSUnauthorizedCallContext",
      "type": "error"
    },
    {
      "inputs": [
        {
          "internalType": "bytes32",
          "name": "slot",
          "type": "bytes32"
        }
      ],
      "name": "UUPSUnsupportedProxiableUUID",
      "type": "error"
    },
    {
      "anonymous": false,
      "inputs": [
        {
          "indexed": false,
          "internalType": "uint64",
          "name": "version",
          "type": "uint64"
        }
      ],
      "name": "Initialized",
      "type": "event"
    },
    {
      "anonymous": false,
      "inputs": [
        {
          "indexed": false,
          "internalType": "address",
          "name": "issuer",
          "type": "address"
        }
      ],
      "name": "IssuerAdded",
      "type": "event"
    },
    {
      "anonymous": false,
      "inputs": [
        {
          "indexed": false,
          "internalType": "address",
          "name": "issuer",
          "type": "address"
        }
      ],
      "name": "IssuerRemoved",
      "type": "event"
    },
    {
      "anonymous": false,
      "inputs": [
        {
          "indexed": true,
          "internalType": "bytes32",
          "name": "fileHash",
          "type": "bytes32"
        },
        {
          "indexed": true,
          "internalType": "address",
          "name": "issuer",
          "type": "address"
        }
      ],
      "name": "OfferLetterIssued",
      "type": "event"
    },
    {
      "anonymous": false,
      "inputs": [
        {
          "indexed": true,
          "internalType": "bytes32",
          "name": "fileHash",
          "type": "bytes32"
        }
      ],
      "name": "OfferLetterRevoked",
      "type": "event"
    },
    {
      "anonymous": false,
      "inputs": [
        {
          "indexed": true,
          "internalType": "address",
          "name": "previousOwner",
          "type": "address"
        },
        {
          "indexed": true,
          "internalType": "address",
          "name": "newOwner",
          "type": "address"
        }
      ],
      "name": "OwnershipTransferred",
      "type": "event"
    },
    {
      "anonymous": false,
      "inputs": [
        {
          "indexed": true,
          "internalType": "address",
          "name": "implementation",
          "type": "address"
        }
      ],
      "name": "Upgraded",
      "type": "event"
    },
    {
      "inputs": [],
      "name": "UPGRADE_INTERFACE_VERSION",
      "outputs": [
        {
          "internalType": "string",
          "name": "",
          "type": "string"
        }
      ],
      "stateMutability": "view",
      "type": "function"
    },
    {
      "inputs": [
        {
          "internalType": "address",
          "name": "issuer",
          "type": "address"
        }
      ],
      "name": "addIssuer",
      "outputs": [],
      "stateMutability": "nonpayable",
      "type": "function"
    },
    {
      "inputs": [
        {
          "internalType": "address",
          "name": "",
          "type": "address"
        }
      ],
      "name": "authorizedIssuers",
      "outputs": [
        {
          "internalType": "bool",
          "name": "",
          "type": "bool"
        }
      ],
      "stateMutability": "view",
      "type": "function"
    },
    {
      "inputs": [
        {
          "internalType": "bytes32",
          "name": "fileHash",
          "type": "bytes32"
        }
      ],
      "name": "getLetterDetails",
      "outputs": [
        {
          "internalType": "address",
          "name": "issuer",
          "type": "address"
        },
        {
          "internalType": "bytes32",
          "name": "studentHash",
          "type": "bytes32"
        },
        {
          "internalType": "uint256",
          "name": "issueDate",
          "type": "uint256"
        },
        {
          "internalType": "uint256",
          "name": "expiryDate",
          "type": "uint256"
        },
        {
          "internalType": "bool",
          "name": "isRevoked",
          "type": "bool"
        }
      ],
      "stateMutability": "view",
      "type": "function"
    },
    {
      "inputs": [
        {
          "internalType": "address",
          "name": "contractOwner",
          "type": "address"
        },
        {
          "internalType": "address",
          "name": "initialIssuer",
          "type": "address"
        }
      ],
      "name": "initialize",
      "outputs": [],
      "stateMutability": "nonpayable",
      "type": "function"
    },
    {
      "inputs": [
        {
          "internalType": "bytes32",
          "name": "fileHash",
          "type": "bytes32"
        }
      ],
      "name": "isLetterValid",
      "outputs": [
        {
          "internalType": "bool",
          "name": "",
          "type": "bool"
        }
      ],
      "stateMutability": "view",
      "type": "function"
    },
    {
      "inputs": [
        {
          "internalType": "bytes32",
          "name": "studentHash",
          "type": "bytes32"
        },
        {
          "internalType": "bytes32",
          "name": "fileHash",
          "type": "bytes32"
        },
        {
          "internalType": "uint256",
          "name": "expiryDate",
          "type": "uint256"
        }
      ],
      "name": "issueOfferLetter",
      "outputs": [],
      "stateMutability": "nonpayable",
      "type": "function"
    },
    {
      "inputs": [],
      "name": "owner",
      "outputs": [
        {
          "internalType": "address",
          "name": "",
          "type": "address"
        }
      ],
      "stateMutability": "view",
      "type": "function"
    },
    {
      "inputs": [],
      "name": "proxiableUUID",
      "outputs": [
        {
          "internalType": "bytes32",
          "name": "",
          "type": "bytes32"
        }
      ],
      "stateMutability": "view",
      "type": "function"
    },
    {
      "inputs": [
        {
          "internalType": "address",
          "name": "issuer",
          "type": "address"
        }
      ],
      "name": "removeIssuer",
      "outputs": [],
      "stateMutability": "nonpayable",
      "type": "function"
    },
    {
      "inputs": [],
      "name": "renounceOwnership",
      "outputs": [],
      "stateMutability": "nonpayable",
      "type": "function"
    },
    {
      "inputs": [
        {
          "internalType": "bytes32",
          "name": "fileHash",
          "type": "bytes32"
        }
      ],
      "name": "revokeOfferLetter",
      "outputs": [],
      "stateMutability": "nonpayable",
      "type": "function"
    },
    {
      "inputs": [
        {
          "internalType": "address",
          "name": "newOwner",
          "type": "address"
        }
      ],
      "name": "transferOwnership",
      "outputs": [],
      "stateMutability": "nonpayable",
      "type": "function"
    },
    {
      "inputs": [
        {
          "internalType": "address",
          "name": "newImplementation",
          "type": "address"
        },
        {
          "internalType": "bytes",
          "name": "data",
          "type": "bytes"
        }
      ],
      "name": "upgradeToAndCall",
      "outputs": [],
      "stateMutability": "payable",
      "type": "function"
    }
  ],
  "bytecode": "0x60a06040523060805234801561001457600080fd5b506080516110f161003e60003960008181610a4101528181610a6a0152610bb001526110f16000f3fe6080604052600436106100dd5760003560e01c80638009cc021161007f578063ad3cb1cc11610059578063ad3cb1cc1461024b578063f2fde38b14610289578063f731fa0f146102a9578063ff36c70d146102d957600080fd5b80638009cc02146101b457806380a3bc23146101e45780638da5cb5b1461020457600080fd5b8063485cc955116100bb578063485cc955146101445780634f1ef2861461016457806352d1902d14610177578063715018a61461019f57600080fd5b806320694db0146100e25780632a9273231461010457806347bc709314610124575b600080fd5b3480156100ee57600080fd5b506101026100fd366004610ea4565b61032d565b005b34801561011057600080fd5b5061010261011f366004610ebf565b610391565b34801561013057600080fd5b5061010261013f366004610ea4565b610511565b34801561015057600080fd5b5061010261015f366004610eeb565b61056a565b610102610172366004610f34565b6106db565b34801561018357600080fd5b5061018c6106fa565b6040519081526020015b60405180910390f35b3480156101ab57600080fd5b50610102610717565b3480156101c057600080fd5b506101d46101cf366004610ff6565b61072b565b6040519015158152602001610196565b3480156101f057600080fd5b506101026101ff366004610ff6565b6107c9565b34801561021057600080fd5b507f9016d09d72d40fdae2fd8ceac6b6234c7706214fd39c1cd1e609a0528c199300546040516001600160a01b039091168152602001610196565b34801561025757600080fd5b5061027c604051806040016040528060058152602001640352e302e360dc1b81525081565b6040516101969190611033565b34801561029557600080fd5b506101026102a4366004610ea4565b6108b5565b3480156102b557600080fd5b506101d46102c4366004610ea4565b60016020526000908152604090205460ff1681565b3480156102e557600080fd5b506102f96102f4366004610ff6565b6108f3565b604080516001600160a01b03909616865260208601949094529284019190915260608301521515608082015260a001610196565b6103356109c2565b6001600160a01b038116600081815260016020818152604092839020805460ff191690921790915590519182527f05e7c881d716bee8cb7ed92293133ba156704252439e5c502c277448f04e20c291015b60405180910390a150565b3360009081526001602052604090205460ff166103f55760405162461bcd60e51b815260206004820152601860248201527f4e6f7420616e20617574686f72697a656420697373756572000000000000000060448201526064015b60405180910390fd5b6000828152602081905260409020546001600160a01b03161561045a5760405162461bcd60e51b815260206004820152601b60248201527f4f66666572206c657474657220616c726561647920657869737473000000000060448201526064016103ec565b6040805160c081018252338082526020808301878152838501878152426060860190815260808601888152600060a088018181528b825295819052888120975188546001600160a01b0319166001600160a01b03909116178855935160018801559151600287015551600386015551600485015590516005909301805460ff191693151593909317909255915184917f4c2a934277bf1172d243031499a94c34284d0368fe83b9c69dac6216650ff5f891a3505050565b6105196109c2565b6001600160a01b038116600081815260016020908152604091829020805460ff1916905590519182527faf66545c919a3be306ee446d8f42a9558b5b022620df880517bc9593ec0f2d529101610386565b7ff0c57e16840df040f15088dc2f81fe391c3923bec73e23a9662efc9c229c6a008054600160401b810460ff16159067ffffffffffffffff166000811580156105b05750825b905060008267ffffffffffffffff1660011480156105cd5750303b155b9050811580156105db575080155b156105f95760405163f92ee8a960e01b815260040160405180910390fd5b845467ffffffffffffffff19166001178555831561062357845460ff60401b1916600160401b1785555b61062c87610a1d565b610634610a2e565b6001600160a01b038616600081815260016020818152604092839020805460ff191690921790915590519182527f05e7c881d716bee8cb7ed92293133ba156704252439e5c502c277448f04e20c2910160405180910390a183156106d257845460ff60401b19168555604051600181527fc7f505b2f371ae2175ee4913f4499e1f2633a7b5936321eed1cdaeb6115181d29060200160405180910390a15b50505050505050565b6106e3610a36565b6106ec82610adb565b6106f68282610ae3565b5050565b6000610704610ba5565b5060008051602061109c83398151915290565b61071f6109c2565b6107296000610bee565b565b600081815260208181526040808320815160c08101835281546001600160a01b031680825260018301549482019490945260028201549281019290925260038101546060830152600481015460808301526005015460ff16151560a0820152906107985750600092915050565b8060a00151156107ab5750600092915050565b80608001514211156107c05750600092915050565b50600192915050565b600081815260208190526040902080546001600160a01b031633146108305760405162461bcd60e51b815260206004820152601a60248201527f4f6e6c7920746865206973737565722063616e207265766f6b6500000000000060448201526064016103ec565b600581015460ff16156108775760405162461bcd60e51b815260206004820152600f60248201526e105b1c9958591e481c995d9bdad959608a1b60448201526064016103ec565b60058101805460ff1916600117905560405182907f9d77316af3386ce657396c3891c0a4932716cf3e71afafa93b96de90df6d548e90600090a25050565b6108bd6109c2565b6001600160a01b0381166108e757604051631e4fbdf760e01b8152600060048201526024016103ec565b6108f081610bee565b50565b600081815260208181526040808320815160c08101835281546001600160a01b031680825260018301549482019490945260028201549281019290925260038101546060830152600481015460808301526005015460ff16151560a082015282918291829182919061099a5760405162461bcd60e51b815260206004820152601060248201526f13195d1d195c881b9bdd08199bdd5b9960821b60448201526064016103ec565b805160208201516060830151608084015160a090940151929a91995097509195509350915050565b336109f47f9016d09d72d40fdae2fd8ceac6b6234c7706214fd39c1cd1e609a0528c199300546001600160a01b031690565b6001600160a01b0316146107295760405163118cdaa760e01b81523360048201526024016103ec565b610a25610c5f565b6108f081610ca8565b610729610c5f565b306001600160a01b037f0000000000000000000000000000000000000000000000000000000000000000161480610abd57507f00000000000000000000000000000000000000000000000000000000000000006001600160a01b0316610ab160008051602061109c833981519152546001600160a01b031690565b6001600160a01b031614155b156107295760405163703e46dd60e11b815260040160405180910390fd5b6108f06109c2565b816001600160a01b03166352d1902d6040518163ffffffff1660e01b8152600401602060405180830381865afa925050508015610b3d575060408051601f3d908101601f19168201909252610b3a91810190611066565b60015b610b6557604051634c9c8ce360e01b81526001600160a01b03831660048201526024016103ec565b60008051602061109c8339815191528114610b9657604051632a87526960e21b8152600481018290526024016103ec565b610ba08383610cb0565b505050565b306001600160a01b037f000000000000000000000000000000000000000000000000000000000000000016146107295760405163703e46dd60e11b815260040160405180910390fd5b7f9016d09d72d40fdae2fd8ceac6b6234c7706214fd39c1cd1e609a0528c19930080546001600160a01b031981166001600160a01b03848116918217845560405192169182907f8be0079c531659141344cd1fd0a4f28419497f9722a3daafe3b4186f6b6457e090600090a3505050565b7ff0c57e16840df040f15088dc2f81fe391c3923bec73e23a9662efc9c229c6a0054600160401b900460ff1661072957604051631afcd79f60e31b815260040160405180910390fd5b6108bd610c5f565b610cb982610d06565b6040516001600160a01b038316907fbc7cd75a20ee27fd9adebab32041f755214dbc6bffa90cc0225b39da2e5c2d3b90600090a2805115610cfe57610ba08282610d6b565b6106f6610de1565b806001600160a01b03163b600003610d3c57604051634c9c8ce360e01b81526001600160a01b03821660048201526024016103ec565b60008051602061109c83398151915280546001600160a01b0319166001600160a01b0392909216919091179055565b6060600080846001600160a01b031684604051610d88919061107f565b600060405180830381855af49150503d8060008114610dc3576040519150601f19603f3d011682016040523d82523d6000602084013e610dc8565b606091505b5091509150610dd8858383610e00565b95945050505050565b34156107295760405163b398979f60e01b815260040160405180910390fd5b606082610e1557610e1082610e5f565b610e58565b8151158015610e2c57506001600160a01b0384163b155b15610e5557604051639996b31560e01b81526001600160a01b03851660048201526024016103ec565b50805b9392505050565b805115610e6f5780518082602001fd5b60405163d6bda27560e01b815260040160405180910390fd5b80356001600160a01b0381168114610e9f57600080fd5b919050565b600060208284031215610eb657600080fd5b610e5882610e88565b600080600060608486031215610ed457600080fd5b505081359360208301359350604090920135919050565b60008060408385031215610efe57600080fd5b610f0783610e88565b9150610f1560208401610e88565b90509250929050565b634e487b7160e01b600052604160045260246000fd5b60008060408385031215610f4757600080fd5b610f5083610e88565b9150602083013567ffffffffffffffff80821115610f6d57600080fd5b818501915085601f830112610f8157600080fd5b813581811115610f9357610f93610f1e565b604051601f8201601f19908116603f01168101908382118183101715610fbb57610fbb610f1e565b81604052828152886020848701011115610fd457600080fd5b8260208601602083013760006020848301015280955050505050509250929050565b60006020828403121561100857600080fd5b5035919050565b60005b8381101561102a578181015183820152602001611012565b50506000910152565b602081526000825180602084015261105281604085016020870161100f565b601f01601f19169190910160400192915050565b60006020828403121561107857600080fd5b5051919050565b6000825161109181846020870161100f565b919091019291505056fe360894a13ba1a3210667c828492db98dca3e2076cc3735a920a3ca505d382bbca264697066735822122072fa368dd0c547cbcd3bba72fde2746a2648c6e99332cf38c253741ff20c70ae64736f6c63430008160033",
  "linkReferences": {},
  "deployedLinkReferences": {}
}